:0600000000F064EF00F0C7
:10000800FFFF3682F29EF294000E3026010E312256
:10001800000E3222000E332233500EE1400E305CC7
:10002800420E31580F0E3258D8A01DEF00F020EFC5
:1000380000F0FFFF37EF00F0FFFF040E3418D8B4CC
:1000480028EF00F02BEF00F0FFFF37EF00F0FFFF85
:10005800400E305E420E315A0F0E325A000E335A9D
:10006800000EE1EC09F0FFFF33500EE1C00E305CEA
:10007800C60E31582D0E3258D8A045EF00F048EF83
:1000880000F0FFFF5FEF00F0FFFF040E3418D8A464
:1000980050EF00F053EF00F0FFFF5FEF00F0FFFFBD
:1000A800C00E305EC60E315A2D0E325A000E335A2B
:1000B800010EE1EC09F0FFFFF28E36921100FFFF0E
:0400C800CBEF0AF080
:10060000000102034104050642070809432A30237A
:1006100044DB01FA00050403020101020304054E54
:100620006F2045523A446561637469766174650070
:1006300039393A2047617465204F70656E00476113
:100640007465204F70656E65640047617465204372
:100650006C6F736564004465616374697661746589
:10066000640041637469766174656400436C6F7300
:0B0670006500256400256600200000E6
:10067C00FFFF8DEC09F0FFFF000E2F6E2F0E2D6E7D
:10068C00000E2E6EE6EF05F0FFFF000E246E000E3E
:10069C00236EFFFF6BEC0AF00009D8B458EF03F09F
:1006AC005BEF03F0FFFF7BEF03F0FFFF010E056E26
:1006BC00010E54EC09F01F0E076E060E086E8DEC41
:1006CC0008F00C0E1C6E6C0E1B6EF30EFFFFE82E6A
:1006DC00FDD71B2EFBD71C2EF9D78FEC0AF0560E2C
:1006EC00076E060E086E8DEC08F0FFFF47EC0AF063
:1006FC000009D8A484EF03F087EF03F0FFFF8CEF21
:10070C0003F0FFFF000E246E000E236EFFFF310E70
:10071C001B6EBB0EFFFFE82EFDD71B2EFBD7320E38
:10072C002326000E242224BEA5EF03F0B80E235C72
:10073C000B0E2458D8A0A5EF03F0A8EF03F0FFFF91
:10074C004FEF03F0FFFF100E056E020E54EC09F094
:10075C00FF0E08EC0AF0010E2F6EFFFF2F50D8B4DD
:10076C00BAEF03F0BDEF03F0FFFF4AEF03F0FFFF1A
:10077C001A0E0D6E060E0E6E2D0E0F6E000E106EF6
:10078C007EEC07F0216E020E2118D8A4D0EF03F0F6
:10079C00D3EF03F0FFFFF5EF03F0FFFF010E056E43
:1007AC00010E54EC09F01F0E076E060E086E8DEC50
:1007BC0008F00C0E1C6E6C0E1B6EF30EFFFFE82E79
:1007CC00FDD71B2EFBD71C2EF9D78FEC0AF0560E3B
:1007DC00076E060E086E8DEC08F041EF03F0FFFF7C
:1007EC002104D8A4FCEF03F0FFEF03F0FFFF08EFA8
:1007FC0004F0FFFF000E186E010E176E13EC08F0DC
:10080C0041EF03F0FFFF100E056E020E54EC09F0E1
:10081C00780E08EC0AF041EF03F0FFFF000E206E9B
:10082C00000E1F6EFFFF6BEC0AF00009D8B421EF2D
:10083C0004F024EF04F0FFFF27EF04F0FFFF43EF79
:10084C0004F0FFFF310E1B6EBB0EFFFFE82EFDD731
:10085C001B2EFBD7320E1F26000E202220BE40EF8F
:10086C0004F0880E1F5C130E2058D8A040EF04F043
:10087C0043EF04F0FFFF18EF04F0FFFF6BEC0AF0FE
:10088C000009D8B44CEF04F04FEF04F0FFFF59EF20
:10089C0004F0FFFFFFFF000E186E040E176E13EC32
:1008AC0008F041EF03F0FFFF000E186E020E176EFA
:1008BC0013EC08F041EF03F0FFFF000E266E000E64
:1008CC00256EFFFF6BEC0AF00009D8A470EF04F062
:1008DC0073EF04F0FFFFAFEF04F0FFFF7DEC0AF0C5
:1008EC000009D8B47CEF04F07FEF04F0FFFF82EF37
:1008FC0004F0FFFFAFEF04F0FFFF47EC0AF0000934
:10090C00D8A48BEF04F08EEF04F0FFFF93EF04F00C
:10091C00FFFF000E266E000E256EFFFF310E1B6EC4
:10092C00BB0EFFFFE82EFDD71B2EFBD7320E252664
:10093C00000E262226BEACEF04F0B80E255C0B0E82
:10094C002658D8A0ACEF04F0AFEF04F0FFFF67EF30
:10095C0004F0FFFF6BEC0AF00009D8B4B8EF04F018
:10096C00BBEF04F0FFFFBEEF04F0FFFF50EF04F00D
:10097C00FFFF7DEC0AF00009D8B4C7EF04F0CAEF12
:10098C0004F0FFFFD3EF04F0FFFF000E186E030E10
:10099C00176E13EC08F041EF03F0FFFF100E056E1D
:1009AC00020E54EC09F0FF0E08EC0AF0010E2F6E4B
:1009BC002F50D8B4E4EF04F0E7EF04F0FFFF41EF61
:1009CC0003F0FFFF1A0E0D6E060E0E6E2D0E0F6E3F
:1009DC00000E106E7EEC07F0226E020E2218D8A4C8
:1009EC00FAEF04F0FDEF04F0FFFF00EF05F0FFFF5E
:1009FC0050EF04F0FFFF2204D8A407EF05F00AEF34
:100A0C0005F0FFFF14EF05F0FFFFFFFF000E186E5F
:100A1C00000E176E13EC08F041EF03F0FFFF100E01
:100A2C00056E020E54EC09F0780E08EC0AF041EF5A
:100A3C0003F0FFFF000E286E000E276EFFFF28BE8E
:100A4C0031EF05F0980E275C3A0E2858D8A031EFFC
:100A5C0005F034EF05F0FFFF37EF05F0FFFF66EF11
:100A6C0005F0FFFF6BEC0AF00009D8B440EF05F07D
:100A7C0043EF05F0FFFF46EF05F0FFFF66EF05F0D3
:100A8C00FFFF7DEC0AF00009D8B44FEF05F052EFF0
:100A9C0005F0FFFF57EF05F0FFFF000E286E000E6C
:100AAC00276EFFFF310E1B6EBB0EFFFFE82EFDD72E
:100ABC001B2EFBD7320E2726000E282224EF05F022
:100ACC00FFFF6BEC0AF00009D8B46FEF05F072EF82
:100ADC0005F0FFFF59EF04F0FFFF50EF04F0FFFFAC
:100AEC00000E2A6E000E296EFFFF2ABE87EF05F05E
:100AFC00400E295C1F0E2A58D8A087EF05F08AEF0C
:100B0C0005F0FFFF8DEF05F0FFFFADEF05F0FFFFE8
:100B1C0059EC0AF00009D8A496EF05F099EF05F00E
:100B2C00FFFF9EEF05F0FFFF000E2A6E000E296EF0
:100B3C00FFFF310E1B6EBB0EFFFFE82EFDD71B2EE9
:100B4C00FBD7320E2926000E2A227AEF05F0FFFF82
:100B5C00100E056E020E54EC09F0FF0E08EC0AF0B4
:100B6C00010E1D6E1D0E2B6E000E2C6E150E0D6ED5
:100B7C00060E0E6E2B0E0F6E000E106E7EEC07F036
:100B8C001E6E1E04D8A4CDEF05F0D0EF05F0FFFFCC
:100B9C00DBEF05F0FFFF000E306E000E316E000E25
:100BAC00326E000E336E0BEF05F0FFFF100E056E6C
:100BBC00020E54EC09F0780E08EC0AF075EF05F013
:100BCC00FFFF34501B6E1C6A1C50000AD8B4F1EFA6
:100BDC0005F00BEF05F0FFFF1B50000AD8B4B3EF84
:100BEC0003F0010AD8B413EF04F0030AD8B462EF8F
:100BFC0004F0010AD8B41FEF05F0070AD8B475EF5A
:100C0C0005F00BEF05F064EF00F0FFFF126E1250D1
:100C1C00D8B413EF06F016EF06F0FFFF60EF06F006
:100C2C00FFFF0DC0D9FF0EC0DAFFDF50D8A421EFB3
:100C3C0006F024EF06F0FFFF60EF06F0FFFF000E5A
:100C4C00146EFA0E136EFFFF230E116E1C0EFFFFB7
:100C5C00E82EFDD7112EFBD713C003F014C004F0FF
:100C6C0002D845EF06F0FFFF0500FA6E0F50FD6E3F
:100C7C001050FE6EF850FF6EFA501200FFFFFFFF8F
:100C8C00134A142A14BE54EF06F0DB0E135C010E4B
:100C9C001458D8A054EF06F057EF06F0FFFF29EFD9
:100CAC0006F0FFFF0DC0D9FF0EC0DAFF010EDF6E9C
:100CBC00C4EF06F0FFFF1250D8A467EF06F06AEFFE
:100CCC0006F0FFFFC4EF06F0FFFF0DC0D9FF0EC00A
:100CDC00DAFFDF50D8B475EF06F078EF06F0FFFFBF
:100CEC00C4EF06F0FFFF8FEC0AF0010E056E010E4B
:100CFC0054EC09F06C0E076E060E086E8DEC08F0C5
:100D0C00D58E010E166EDB0E156EFFFF310E116EB9
:100D1C00BB0EFFFFE82EFDD7112EFBD715C003F03D
:100D2C0016C004F002D8A7EF06F0FFFF0500FA6E1C
:100D3C000F50FD6E1050FE6EF850FF6EFA50120000
:100D4C00FFFFFFFF1506D8A0160616BEBAEF06F079
:100D5C00165007E1FB0E155CD8B0B7EF06F0BAEFF2
:100D6C0006F0FFFF8BEF06F0FFFFD59ED8EC0AF0E4
:100D7C000DC0D9FF0EC0DAFF000EDF6EFFFF1200B0
:100D8C00FFFFFFFF000E076E630E086E000E0A6E6B
:100D9C00000E096EFFFF0ABEDDEF06F00A500AE1F5
:100DAC00040E095CD8A0DDEF06F0E0EF06F0FFFFC3
:100DBC00E3EF06F0FFFF5FEF07F0FFFF09C003F062
:100DCC00080E046E000E056E032AF1EF06F0FFFF0D
:100DDC00053405320432FFFF032EEDEF06F004500C
:100DEC00816E000E0C6E000E0B6EFFFF0BC003F03D
:100DFC00100E046E032A06EF07F0FFFFD89004369E
:100E0C00FFFF032E03EF07F0045081140009D8B440
:100E1C0012EF07F015EF07F0FFFF48EF07F0FFFFA9
:100E2C000750D8A41CEF07F01FEF07F0FFFF44EFAB
:100E3C0007F0FFFF09C003F00AC004F0D890033696
:100E4C000436D89003360436010E0324056E060EC4
:100E5C000420066E0B50055E0C50065A030E052638
:100E6C00000E062205C0F6FF06C0F7FF0800FFFFC4
:100E7C00F5CF08F0010E076E48EF07F0FFFF620E8A
:100E8C007BEF07F0FFFF0B4A0C2A0CBE57EF07F065
:100E9C000C500AE1040E0B5CD8A057EF07F05AEF88
:100EAC0007F0FFFFFBEF06F0FFFF094A0A2AD0EF1D
:100EBC0006F0FFFF0F0E816EFFFF81CF03F0F00EE7
:100ECC000316D8A46CEF07F06FEF07F0FFFF62EF8B
:100EDC0007F0FFFF000E816E310E036EBB0EFFFF9D
:100EEC00E82EFDD7032EFBD70850FFFF1200FFFFA3
:100EFC00FFFF000E146E000E136EFFEF07F0FFFFE6
:100F0C00C7EC06F0156E6BEC0AF00009D8B491EF43
:100F1C0007F094EF07F0FFFFA0EF07F0FFFF0FC003
:100F2C00D9FF10C0DAFF000EDE6E000EDD6E020E71
:100F3C0010EF08F0FFFF13500D24116E14500E200B
:100F4C00126E11C0F6FF12C0F7FF0800FFFFF5503C
:100F5C001518D8A4B4EF07F0B7EF07F0FFFFD1EFE7
:100F6C0007F0FFFF134A142A050E13181410D8A407
:100F7C00C2EF07F0C5EF07F0FFFFF6EF07F0FFFF3A
:100F8C000FC0D9FF10C0DAFF000EDE6E000EDD6E52
:100F9C00010E10EF08F0FFFF630E1518D8A4D9EF5F
:100FAC0007F0DCEF07F0FFFFDFEF07F0FFFFF6EFD6
:100FBC0007F0FFFF620E1518D8A4E7EF07F0EAEF71
:100FCC0007F0FFFFEDEF07F0FFFFF6EF07F0FFFF75
:100FDC000FC0D9FF10C0DAFF000EDE6E000EDD6E02
:100FEC00FFFF310E116EBB0EFFFFE82EFDD7112E49
:100FFC00FBD7FFFF0FC0D9FF10C0DAFFDE50DE10A9
:10100C00D8A40BEF08F00EEF08F0FFFF85EF07F008
:10101C00FFFF000EFFFF1200FFFFFFFF6AEF08F05B
:10102C00FFFF010E346E8FEC0AF0620E076E060E97
:10103C00086E8DEC08F08AEF08F0FFFF020E346E9C
:10104C00839CBDEC0AF08FEC0AF04A0E076E060E7C
:10105C00086E8DEC08F08AEF08F0FFFF030E346E7B
:10106C008FEC0AF03E0E076E060E086E8DEC08F043
:10107C00838CFFFFAFEC0AF08AEF08F0FFFF040E41
:10108C00346E010EBAEC09F0D58E8FEC0AF0300EEE
:10109C00076E060E086E8DEC08F03FEF08F0FFFFB0
:1010AC00000E346E838CBDEC0AF08FEC0AF0010E4E
:1010BC00056E010E54EC09F0560E076E060E086E06
:1010CC008DEC08F08AEF08F0FFFF17C019F018C07C
:1010DC001AF01A50000AD8B476EF08F055EF08F061
:1010EC00FFFF1950010AD8B416EF08F0030AD8B460
:1010FC0023EF08F0010AD8B433EF08F0070AD8B48C
:10110C0044EF08F055EF08F0FFFF1200FFFFFFFF60
:10111C00000E0C6E000E0B6EB0EF08F0FFFF0B50C4
:10112C000724096E0C5008200A6E09C0F6FF0AC08D
:10113C00F7FFF86A050EF76404D00800FFFFF550BE
:10114C0005D0F6CFE9FFF7CFEAFFEF5008EC0AF035
:10115C000B4A0C2AFFFF0B500724096E0C50082079
:10116C000A6E09C0F6FF0AC0F7FFF86A050EF764AD
:10117C0004D00800FFFFF55005D0F6CFE9FFF7CFFC
:10118C00EAFFEF500009D8A4CEEF08F0D1EF08F039
:10119C00FFFF94EF08F0FFFF1200FFFFFFFF959891
:1011AC00949C000E14EC09F01E0E056E3C0EFFFF15
:1011BC00E82EFDD7052EFBD700D07D0EFFFFE82EC5
:1011CC00FDD7030EA0EC0AF0050E056EDF0EFFFF37
:1011DC00E82EFDD7052EFBD7030EA0EC0AF0250E4A
:1011EC00FFFFE82EFDD700D0030EA0EC0AF0020E94
:1011FC00A0EC0AF0020EA0EC0AF0080EA0EC0AF02B
:10120C00000EA0EC0AF00C0EA0EC0AF0000EA0EC04
:10121C000AF0060EA0EC0AF01200FFFFFFFF036EAF
:10122C0003A01BEF09F01EEF09F0FFFF22EF09F0FE
:10123C00FFFF828A24EF09F0FFFF829AFFFF03A2CF
:10124C002AEF09F02DEF09F0FFFF31EF09F0FFFF56
:10125C00828833EF09F0FFFF8298FFFF03A439EF78
:10126C0009F03CEF09F0FFFF40EF09F0FFFF838628
:10127C0042EF09F0FFFF8396FFFF03A648EF09F04A
:10128C004BEF09F0FFFF4FEF09F0FFFF838451EFA5
:10129C0009F0FFFF8394FFFF1200FFFFFFFF066EB4
:1012AC000604D8A45CEF09F05FEF09F0FFFF6FEFC5
:1012BC0009F0FFFF05507F0F096E09380F0B086E00
:1012CC0009500F0B076E0850A0EC0AF00750A0EC69
:1012DC000AF0FFFF020E0618D8A477EF09F07AEF98
:1012EC0009F0FFFF8AEF09F0FFFF0550BF0F096EF1
:1012FC0009380F0B086E09500F0B076E0850A0EC45
:10130C000AF00750A0EC0AF0FFFF1200FFFFFFFFEE
:10131C00F00E936E0D0E946E210E956E0F0E816E67
:10132C00000E826E800E836E480ED56E000ECD6E52
:10133C00060ECA6ECB680C0EBA6EA00EF26E800E44
:10134C00F16E000EF06E000ED06E000E046EFA0EF2
:10135C00036E2EEC0AF0D4EC08F034C017F0186AC7
:10136C0013EC08F01200FFFFFFFF046E83A2C1EF25
:10137C0009F0C6EF09F0FFFF036A032AC8EF09F072
:10138C00FFFF036AFFFF034683500318FD0B03188E
:10139C00836E0450D8B4D5EF09F0D8EF09F0FFFFF5
:1013AC00DEEF09F0FFFF83A202D0838C01D0839C77
:1013BC00FFFF1200FFFFFFFF026E83A2E8EF09F0B0
:1013CC00EDEF09F0FFFF016A012AEFEF09F0FFFFD3
:1013DC00016AFFFF014683500118FD0B0118836E53
:1013EC000250D8B4FCEF09F0FFEF09F0FFFF05EF56
:1013FC000AF0FFFF83A202D0838C01D0839CFFFFF5
:10140C001200FFFFFFFF066E06500F0B046E065016
:10141C00F00B056E838805380F0B14EC09F0828CE9
:10142C007D0EFFFFE82EFDD7829C7D0EFFFFE82E80
:10143C00FDD7045014EC09F0828C7D0EFFFFE82ED2
:10144C00FDD7829C7D0EFFFFE82EFDD71200FFFF1B
:10145C00FFFF03C005F0030E0516053ABA50051838
:10146C00CF0B0518BA6E03C005F004C006F00634A5
:10147C00063205320634063205320550BB6E1200B8
:10148C00FFFFFFFF82A44DEF0AF050EF0AF0FFFFC1
:10149C0054EF0AF0FFFF010E56EF0AF0FFFF000EAB
:1014AC00FFFF1200FFFFFFFF82A65FEF0AF062EF63
:1014BC000AF0FFFF66EF0AF0FFFF010E68EF0AF07B
:1014CC00FFFF000EFFFF1200FFFFFFFF83A071EF75
:1014DC000AF074EF0AF0FFFF78EF0AF0FFFF010E3D
:1014EC007AEF0AF0FFFF000EFFFF1200FFFFFFFF75
:1014FC0082A083EF0AF086EF0AF0FFFF8AEF0AF072
:10150C00FFFF010E8CEF0AF0FFFF000EFFFF120031
:10151C00FFFFFFFF000EA0EC0AF0010EA0EC0AF09A
:10152C00310E056EBB0EFFFFE82EFDD7052EFBD747
:10153C001200FFFFFFFF046E8398829E045014EC90
:10154C0009F0828C7D0EFFFFE82EFDD7829C1200E5
:10155C00FFFFFFFF350E0D6E000E0E6E5C0E0F6E54
:10156C00140E106E010E0BEC06F01200FFFFFFFFC5
:10157C00350E0D6E000E0E6E5C0E0F6E140E106E90
:10158C00000E0BEC06F01200FFFF356A346A336A6A
:10159C00326A316A306A36903692000EF86E00016B
:1015AC003EEF03F0FFFF83921200FFFFFFFFFFFFF0
:020000040020DA
:08000000FFFFFFFFFFFFFFFF00
:020000040030CA
:0E000000FF220D0EFF0181FF0FC00FE00F4029
:00000001FF
